{
  "contractName": "NFTEscrow",
  "abi": [
    {
      "inputs": [
        {
          "internalType": "uint8[]",
          "name": "_checkpoints",
          "type": "uint8[]"
        },
        {
          "internalType": "address",
          "name": "_freelancer",
          "type": "address"
        },
        {
          "internalType": "uint256",
          "name": "_clientAmount",
          "type": "uint256"
        },
        {
          "internalType": "uint256",
          "name": "_freelancerStake",
          "type": "uint256"
        },
        {
          "internalType": "address",
          "name": "_RGCNFTAddress",
          "type": "address"
        },
        {
          "internalType": "address",
          "name": "_RTNAddress",
          "type": "address"
        },
        {
          "internalType": "uint256",
          "name": "_freelancerCompensationIfClientCancels",
          "type": "uint256"
        }
      ],
      "stateMutability": "payable",
      "type": "constructor"
    },
    {
      "anonymous": false,
      "inputs": [
        {
          "indexed": false,
          "internalType": "uint8",
          "name": "",
          "type": "uint8"
        }
      ],
      "name": "ClientCheckpointChanged",
      "type": "event"
    },
    {
      "anonymous": false,
      "inputs": [
        {
          "indexed": false,
          "internalType": "uint8",
          "name": "",
          "type": "uint8"
        }
      ],
      "name": "FreelancerCheckpointChanged",
      "type": "event"
    },
    {
      "anonymous": false,
      "inputs": [
        {
          "indexed": false,
          "internalType": "uint8",
          "name": "_from",
          "type": "uint8"
        },
        {
          "indexed": false,
          "internalType": "uint8",
          "name": "_to",
          "type": "uint8"
        }
      ],
      "name": "FundsDisbursed",
      "type": "event"
    },
    {
      "anonymous": false,
      "inputs": [
        {
          "indexed": false,
          "internalType": "enum NFTEscrow.ProjectState",
          "name": "_state",
          "type": "uint8"
        }
      ],
      "name": "ProjectStateChanged",
      "type": "event"
    },
    {
      "anonymous": false,
      "inputs": [
        {
          "indexed": false,
          "internalType": "address",
          "name": "",
          "type": "address"
        },
        {
          "indexed": false,
          "internalType": "uint256",
          "name": "",
          "type": "uint256"
        }
      ],
      "name": "Received",
      "type": "event"
    },
    {
      "inputs": [],
      "name": "RGCNFTAddress",
      "outputs": [
        {
          "internalType": "address",
          "name": "",
          "type": "address"
        }
      ],
      "stateMutability": "view",
      "type": "function"
    },
    {
      "inputs": [],
      "name": "RNFTAddress",
      "outputs": [
        {
          "internalType": "address",
          "name": "",
          "type": "address"
        }
      ],
      "stateMutability": "view",
      "type": "function"
    },
    {
      "inputs": [],
      "name": "RTNAddress",
      "outputs": [
        {
          "internalType": "address",
          "name": "",
          "type": "address"
        }
      ],
      "stateMutability": "view",
      "type": "function"
    },
    {
      "inputs": [],
      "name": "clientAddress",
      "outputs": [
        {
          "internalType": "address payable",
          "name": "",
          "type": "address"
        }
      ],
      "stateMutability": "view",
      "type": "function"
    },
    {
      "inputs": [],
      "name": "freelancerAddress",
      "outputs": [
        {
          "internalType": "address payable",
          "name": "",
          "type": "address"
        }
      ],
      "stateMutability": "view",
      "type": "function"
    },
    {
      "inputs": [],
      "name": "projectState",
      "outputs": [
        {
          "internalType": "enum NFTEscrow.ProjectState",
          "name": "",
          "type": "uint8"
        }
      ],
      "stateMutability": "view",
      "type": "function"
    },
    {
      "inputs": [
        {
          "internalType": "string",
          "name": "_RGCNFTArtURI",
          "type": "string"
        }
      ],
      "name": "setRGCNFTURI",
      "outputs": [],
      "stateMutability": "nonpayable",
      "type": "function"
    },
    {
      "inputs": [],
      "name": "getProjectState",
      "outputs": [
        {
          "internalType": "enum NFTEscrow.ProjectState",
          "name": "",
          "type": "uint8"
        }
      ],
      "stateMutability": "view",
      "type": "function"
    },
    {
      "inputs": [
        {
          "internalType": "address",
          "name": "_RNFTAddress",
          "type": "address"
        },
        {
          "internalType": "uint256",
          "name": "_RNFTTokenID",
          "type": "uint256"
        }
      ],
      "name": "depositRNFT",
      "outputs": [],
      "stateMutability": "nonpayable",
      "type": "function"
    },
    {
      "inputs": [],
      "name": "depositFundsAsClient",
      "outputs": [],
      "stateMutability": "nonpayable",
      "type": "function"
    },
    {
      "inputs": [],
      "name": "depositFundsAsFreelancer",
      "outputs": [],
      "stateMutability": "nonpayable",
      "type": "function"
    },
    {
      "inputs": [],
      "name": "increaseFreelancerCheckpoint",
      "outputs": [],
      "stateMutability": "nonpayable",
      "type": "function"
    },
    {
      "inputs": [],
      "name": "increaseClientCheckpoint",
      "outputs": [],
      "stateMutability": "nonpayable",
      "type": "function"
    },
    {
      "inputs": [],
      "name": "disburseFunds",
      "outputs": [],
      "stateMutability": "nonpayable",
      "type": "function"
    },
    {
      "inputs": [],
      "name": "getCheckpointStatus",
      "outputs": [
        {
          "internalType": "uint8",
          "name": "client",
          "type": "uint8"
        },
        {
          "internalType": "uint8",
          "name": "freelancer",
          "type": "uint8"
        },
        {
          "internalType": "uint8",
          "name": "smc",
          "type": "uint8"
        }
      ],
      "stateMutability": "view",
      "type": "function"
    },
    {
      "inputs": [],
      "name": "getCheckpoints",
      "outputs": [
        {
          "internalType": "uint8[]",
          "name": "",
          "type": "uint8[]"
        }
      ],
      "stateMutability": "view",
      "type": "function"
    },
    {
      "inputs": [],
      "name": "clientCancel",
      "outputs": [],
      "stateMutability": "nonpayable",
      "type": "function"
    },
    {
      "inputs": [],
      "name": "freelancerCancel",
      "outputs": [],
      "stateMutability": "nonpayable",
      "type": "function"
    },
    {
      "inputs": [
        {
          "internalType": "address",
          "name": "operator",
          "type": "address"
        },
        {
          "internalType": "address",
          "name": "from",
          "type": "address"
        },
        {
          "internalType": "uint256",
          "name": "tokenId",
          "type": "uint256"
        },
        {
          "internalType": "bytes",
          "name": "data",
          "type": "bytes"
        }
      ],
      "name": "onERC721Received",
      "outputs": [
        {
          "internalType": "bytes4",
          "name": "",
          "type": "bytes4"
        }
      ],
      "stateMutability": "pure",
      "type": "function"
    }
  ],
  "bytecode": "0x608060405260405162003009380380620030098339818101604052810190620000299190620005b2565b606487600189516200003c9190620006b3565b8151811062000050576200004f620006ee565b5b602002602001015160ff16146200006657600080fd5b6000876000815181106200007f576200007e620006ee565b5b602002602001015160ff16146200009557600080fd5b33600360006101000a81548173ffffffffffffffffffffffffffffffffffffffff021916908373ffffffffffffffffffffffffffffffffffffffff16021790555085600460006101000a81548173ffffffffffffffffffffffffffffffffffffffff021916908373ffffffffffffffffffffffffffffffffffffffff16021790555086600a90805190602001906200012f9291906200027e565b50846006819055508360078190555082600160006101000a81548173ffffffffffffffffffffffffffffffffffffffff021916908373ffffffffffffffffffffffffffffffffffffffff160217905550816000806101000a81548173ffffffffffffffffffffffffffffffffffffffff021916908373ffffffffffffffffffffffffffffffffffffffff16021790555080600c81905550620001d860006200020660201b60201c565b60405180602001604052806000815250600b9081620001f891906200095e565b505050505050505062000ae2565b80600860006101000a81548160ff021916908360078111156200022e576200022d62000a45565b5b02179055507f35bb0cd5f89def7829cadbfe305076fca9a4811f847e3ce1cd4e017651dda4d4600860009054906101000a900460ff1660405162000273919062000ac5565b60405180910390a150565b82805482825590600052602060002090601f01602090048101928215620003195791602002820160005b83821115620002e857835183826101000a81548160ff021916908360ff1602179055509260200192600101602081600001049283019260010302620002a8565b8015620003175782816101000a81549060ff0219169055600101602081600001049283019260010302620002e8565b505b5090506200032891906200032c565b5090565b5b80821115620003475760008160009055506001016200032d565b5090565b6000604051905090565b600080fd5b600080fd5b600080fd5b6000601f19601f8301169050919050565b7f4e487b7100000000000000000000000000000000000000000000000000000000600052604160045260246000fd5b620003af8262000364565b810181811067ffffffffffffffff82111715620003d157620003d062000375565b5b80604052505050565b6000620003e66200034b565b9050620003f48282620003a4565b919050565b600067ffffffffffffffff82111562000417576200041662000375565b5b602082029050602081019050919050565b600080fd5b600060ff82169050919050565b62000445816200042d565b81146200045157600080fd5b50565b60008151905062000465816200043a565b92915050565b6000620004826200047c84620003f9565b620003da565b90508083825260208201905060208402830185811115620004a857620004a762000428565b5b835b81811015620004d55780620004c0888262000454565b845260208401935050602081019050620004aa565b5050509392505050565b600082601f830112620004f757620004f66200035f565b5b8151620005098482602086016200046b565b91505092915050565b600073ffffffffffffffffffffffffffffffffffffffff82169050919050565b60006200053f8262000512565b9050919050565b620005518162000532565b81146200055d57600080fd5b50565b600081519050620005718162000546565b92915050565b6000819050919050565b6200058c8162000577565b81146200059857600080fd5b50565b600081519050620005ac8162000581565b92915050565b600080600080600080600060e0888a031215620005d457620005d362000355565b5b600088015167ffffffffffffffff811115620005f557620005f46200035a565b5b620006038a828b01620004df565b9750506020620006168a828b0162000560565b9650506040620006298a828b016200059b565b95505060606200063c8a828b016200059b565b94505060806200064f8a828b0162000560565b93505060a0620006628a828b0162000560565b92505060c0620006758a828b016200059b565b91505092959891949750929550565b7f4e487b7100000000000000000000000000000000000000000000000000000000600052601160045260246000fd5b6000620006c08262000577565b9150620006cd8362000577565b9250828203905081811115620006e857620006e762000684565b5b92915050565b7f4e487b7100000000000000000000000000000000000000000000000000000000600052603260045260246000fd5b600081519050919050565b7f4e487b7100000000000000000000000000000000000000000000000000000000600052602260045260246000fd5b600060028204905060018216806200077057607f821691505b60208210810362000786576200078562000728565b5b50919050565b60008190508160005260206000209050919050565b60006020601f8301049050919050565b600082821b905092915050565b600060088302620007f07fffffffffffffffffffffffffffffffffffffffffffffffffffffffffffffffff82620007b1565b620007fc8683620007b1565b95508019841693508086168417925050509392505050565b6000819050919050565b60006200083f62000839620008338462000577565b62000814565b62000577565b9050919050565b6000819050919050565b6200085b836200081e565b620008736200086a8262000846565b848454620007be565b825550505050565b600090565b6200088a6200087b565b6200089781848462000850565b505050565b5b81811015620008bf57620008b360008262000880565b6001810190506200089d565b5050565b601f8211156200090e57620008d8816200078c565b620008e384620007a1565b81016020851015620008f3578190505b6200090b6200090285620007a1565b8301826200089c565b50505b505050565b600082821c905092915050565b6000620009336000198460080262000913565b1980831691505092915050565b60006200094e838362000920565b9150826002028217905092915050565b62000969826200071d565b67ffffffffffffffff81111562000985576200098462000375565b5b62000991825462000757565b6200099e828285620008c3565b600060209050601f831160018114620009d65760008415620009c1578287015190505b620009cd858262000940565b86555062000a3d565b601f198416620009e6866200078c565b60005b8281101562000a1057848901518255600182019150602085019450602081019050620009e9565b8683101562000a30578489015162000a2c601f89168262000920565b8355505b6001600288020188555050505b505050505050565b7f4e487b7100000000000000000000000000000000000000000000000000000000600052602160045260246000fd5b6008811062000a885762000a8762000a45565b5b50565b600081905062000a9b8262000a74565b919050565b600062000aad8262000a8b565b9050919050565b62000abf8162000aa0565b82525050565b600060208201905062000adc600083018462000ab4565b92915050565b6125178062000af26000396000f3fe608060405234801561001057600080fd5b50600436106101215760003560e01c80636755d83c116100ad578063bc65335d11610071578063bc65335d1461027a578063ebd2362214610284578063ebddd3541461028e578063f9bb5488146102aa578063fa864c07146102c657610121565b80636755d83c14610220578063748807ab1461022a57806390f5518c14610248578063938f2d51146102525780639d6672ff1461027057610121565b80632c2ab5ea116100f45780632c2ab5ea1461019e57806349958611146101bc57806359220c73146101da5780635cb724f6146101f8578063654c5d201461020257610121565b806306a4e7cb146101265780630d3c21621461014457806314ec993d14610164578063150b7a021461016e575b600080fd5b61012e6102e4565b60405161013b919061181c565b60405180910390f35b61014c61030a565b60405161015b93929190611853565b60405180910390f35b61016c610353565b005b61018860048036038101906101839190611977565b6103b7565b6040516101959190611a3a565b60405180910390f35b6101a66103cc565b6040516101b3919061181c565b60405180910390f35b6101c46103f2565b6040516101d19190611acc565b60405180910390f35b6101e2610409565b6040516101ef9190611af6565b60405180910390f35b61020061042f565b005b61020a61057a565b6040516102179190611af6565b60405180910390f35b61022861059e565b005b6102326106f2565b60405161023f9190611acc565b60405180910390f35b610250610705565b005b61025a6108d5565b6040516102679190611bcf565b60405180910390f35b610278610953565b005b610282610b2b565b005b61028c610c76565b005b6102a860048036038101906102a39190611bf1565b610dca565b005b6102c460048036038101906102bf9190611d72565b610f4f565b005b6102ce610f62565b6040516102db9190611af6565b60405180910390f35b600460009054906101000a900473ffffffffffffffffffffffffffffffffffffffff1681565b6000806000600960000160009054906101000a900460ff16600960000160019054906101000a900460ff16600960000160029054906101000a900460ff16925092509250909192565b600460009054906101000a900473ffffffffffffffffffffffffffffffffffffffff1673ffffffffffffffffffffffffffffffffffffffff163373ffffffffffffffffffffffffffffffffffffffff16146103ad57600080fd5b6103b5610f88565b565b600063150b7a0260e01b905095945050505050565b600360009054906101000a900473ffffffffffffffffffffffffffffffffffffffff1681565b6000600860009054906101000a900460ff16905090565b600160009054906101000a900473ffffffffffffffffffffffffffffffffffffffff1681565b600280600781111561044457610443611a55565b5b600860009054906101000a900460ff16600781111561046657610465611a55565b5b1461047057600080fd5b600460009054906101000a900473ffffffffffffffffffffffffffffffffffffffff1673ffffffffffffffffffffffffffffffffffffffff163373ffffffffffffffffffffffffffffffffffffffff16146104ca57600080fd5b60008054906101000a900473ffffffffffffffffffffffffffffffffffffffff1673ffffffffffffffffffffffffffffffffffffffff166323b872dd33306007546040518463ffffffff1660e01b815260040161052993929190611dca565b6020604051808303816000875af1158015610548573d6000803e3d6000fd5b505050506040513d601f19601f8201168201806040525081019061056c9190611e39565b50610577600361120a565b50565b60008054906101000a900473ffffffffffffffffffffffffffffffffffffffff1681565b60038060078111156105b3576105b2611a55565b5b600860009054906101000a900460ff1660078111156105d5576105d4611a55565b5b146105df57600080fd5b600360009054906101000a900473ffffffffffffffffffffffffffffffffffffffff1673ffffffffffffffffffffffffffffffffffffffff163373ffffffffffffffffffffffffffffffffffffffff161461063957600080fd5b6001600a8054905061064b9190611e95565b600960000160009054906101000a900460ff1660ff161061066b57600080fd5b6009600001600081819054906101000a900460ff168092919061068d90611ec9565b91906101000a81548160ff021916908360ff160217905550507f11ecc95ad45611faefeaffd2217a5eb95b18a0742f9b06be91d10f254cb4395b600960000160009054906101000a900460ff166040516106e79190611ef2565b60405180910390a150565b600860009054906101000a900460ff1681565b600460009054906101000a900473ffffffffffffffffffffffffffffffffffffffff1673ffffffffffffffffffffffffffffffffffffffff163373ffffffffffffffffffffffffffffffffffffffff161461075f57600080fd5b610767610f88565b610771600761120a565b61077961127d565b60008054906101000a900473ffffffffffffffffffffffffffffffffffffffff1673ffffffffffffffffffffffffffffffffffffffff1663a9059cbb600460009054906101000a900473ffffffffffffffffffffffffffffffffffffffff1660008054906101000a900473ffffffffffffffffffffffffffffffffffffffff1673ffffffffffffffffffffffffffffffffffffffff166370a08231306040518263ffffffff1660e01b81526004016108319190611af6565b602060405180830381865afa15801561084e573d6000803e3d6000fd5b505050506040513d601f19601f820116820180604052508101906108729190611f22565b6040518363ffffffff1660e01b815260040161088f929190611fae565b6020604051808303816000875af11580156108ae573d6000803e3d6000fd5b505050506040513d601f19601f820116820180604052508101906108d29190611e39565b50565b6060600a80548060200260200160405190810160405280929190818152602001828054801561094957602002820191906000526020600020906000905b82829054906101000a900460ff1660ff16815260200190600101906020826000010492830192600103820291508084116109125790505b5050505050905090565b600360009054906101000a900473ffffffffffffffffffffffffffffffffffffffff1673ffffffffffffffffffffffffffffffffffffffff163373ffffffffffffffffffffffffffffffffffffffff16146109ad57600080fd5b6109b5610f88565b6109bf600661120a565b6109c7611384565b6109cf611449565b60008054906101000a900473ffffffffffffffffffffffffffffffffffffffff1673ffffffffffffffffffffffffffffffffffffffff1663a9059cbb600360009054906101000a900473ffffffffffffffffffffffffffffffffffffffff1660008054906101000a900473ffffffffffffffffffffffffffffffffffffffff1673ffffffffffffffffffffffffffffffffffffffff166370a08231306040518263ffffffff1660e01b8152600401610a879190611af6565b602060405180830381865afa158015610aa4573d6000803e3d6000fd5b505050506040513d601f19601f82011682018060405250810190610ac89190611f22565b6040518363ffffffff1660e01b8152600401610ae5929190611fae565b6020604051808303816000875af1158015610b04573d6000803e3d6000fd5b505050506040513d601f19601f82011682018060405250810190610b289190611e39565b50565b6001806007811115610b4057610b3f611a55565b5b600860009054906101000a900460ff166007811115610b6257610b61611a55565b5b14610b6c57600080fd5b600360009054906101000a900473ffffffffffffffffffffffffffffffffffffffff1673ffffffffffffffffffffffffffffffffffffffff163373ffffffffffffffffffffffffffffffffffffffff1614610bc657600080fd5b60008054906101000a900473ffffffffffffffffffffffffffffffffffffffff1673ffffffffffffffffffffffffffffffffffffffff166323b872dd33306006546040518463ffffffff1660e01b8152600401610c2593929190611dca565b6020604051808303816000875af1158015610c44573d6000803e3d6000fd5b505050506040513d601f19601f82011682018060405250810190610c689190611e39565b50610c73600261120a565b50565b6003806007811115610c8b57610c8a611a55565b5b600860009054906101000a900460ff166007811115610cad57610cac611a55565b5b14610cb757600080fd5b600460009054906101000a900473ffffffffffffffffffffffffffffffffffffffff1673ffffffffffffffffffffffffffffffffffffffff163373ffffffffffffffffffffffffffffffffffffffff1614610d1157600080fd5b6001600a80549050610d239190611e95565b600960000160019054906101000a900460ff1660ff1610610d4357600080fd5b6009600001600181819054906101000a900460ff1680929190610d6590611ec9565b91906101000a81548160ff021916908360ff160217905550507fa6471d73972f7294506313519b359cd61cdba86164a5d686c2b846aa32f76d0e600960000160019054906101000a900460ff16604051610dbf9190611ef2565b60405180910390a150565b6000806007811115610ddf57610dde611a55565b5b600860009054906101000a900460ff166007811115610e0157610e00611a55565b5b14610e0b57600080fd5b600360009054906101000a900473ffffffffffffffffffffffffffffffffffffffff1673ffffffffffffffffffffffffffffffffffffffff163373ffffffffffffffffffffffffffffffffffffffff1614610e6557600080fd5b82600260006101000a81548173ffffffffffffffffffffffffffffffffffffffff021916908373ffffffffffffffffffffffffffffffffffffffff16021790555081600581905550600260009054906101000a900473ffffffffffffffffffffffffffffffffffffffff1673ffffffffffffffffffffffffffffffffffffffff166342842e0e33306005546040518463ffffffff1660e01b8152600401610f0e93929190611dca565b600060405180830381600087803b158015610f2857600080fd5b505af1158015610f3c573d6000803e3d6000fd5b50505050610f4a600161120a565b505050565b80600b9081610f5e91906121e4565b5050565b600260009054906101000a900473ffffffffffffffffffffffffffffffffffffffff1681565b6000600960000160009054906101000a900460ff169050600960000160009054906101000a900460ff1660ff16600960000160019054906101000a900460ff1660ff161015610fe757600960000160019054906101000a900460ff1690505b8060ff16600960000160029054906101000a900460ff1660ff161015611207576000600a600960000160029054906101000a900460ff1660ff1681548110611032576110316122b6565b5b90600052602060002090602091828204019190069054906101000a900460ff16600a8360ff1681548110611069576110686122b6565b5b90600052602060002090602091828204019190069054906101000a900460ff1661109391906122e5565b9050600060646006548360ff166110aa919061231a565b6110b4919061238b565b905060008054906101000a900473ffffffffffffffffffffffffffffffffffffffff1673ffffffffffffffffffffffffffffffffffffffff1663a9059cbb600460009054906101000a900473ffffffffffffffffffffffffffffffffffffffff16836040518363ffffffff1660e01b8152600401611133929190611fae565b6020604051808303816000875af1158015611152573d6000803e3d6000fd5b505050506040513d601f19601f820116820180604052508101906111769190611e39565b507fef5a579755ff2c3c9e3efa5ab3041d6afb2ad0e49faffda620fbe7d3deb08f1e600960000160029054906101000a900460ff16846040516111ba9291906123bc565b60405180910390a182600960000160026101000a81548160ff021916908360ff1602179055506001600a805490506111f29190611e95565b8360ff160361120457611203611600565b5b50505b50565b80600860006101000a81548160ff0219169083600781111561122f5761122e611a55565b5b02179055507f35bb0cd5f89def7829cadbfe305076fca9a4811f847e3ce1cd4e017651dda4d4600860009054906101000a900460ff166040516112729190611acc565b60405180910390a150565b600780600781111561129257611291611a55565b5b600860009054906101000a900460ff1660078111156112b4576112b3611a55565b5b146112be57600080fd5b60008054906101000a900473ffffffffffffffffffffffffffffffffffffffff1673ffffffffffffffffffffffffffffffffffffffff1663a9059cbb600360009054906101000a900473ffffffffffffffffffffffffffffffffffffffff166007546040518363ffffffff1660e01b815260040161133d929190611fae565b6020604051808303816000875af115801561135c573d6000803e3d6000fd5b505050506040513d601f19601f820116820180604052508101906113809190611e39565b5050565b60008054906101000a900473ffffffffffffffffffffffffffffffffffffffff1673ffffffffffffffffffffffffffffffffffffffff1663a9059cbb600460009054906101000a900473ffffffffffffffffffffffffffffffffffffffff166007546040518363ffffffff1660e01b8152600401611403929190611fae565b6020604051808303816000875af1158015611422573d6000803e3d6000fd5b505050506040513d601f19601f820116820180604052508101906114469190611e39565b50565b600680600781111561145e5761145d611a55565b5b600860009054906101000a900460ff1660078111156114805761147f611a55565b5b1461148a57600080fd5b60008054906101000a900473ffffffffffffffffffffffffffffffffffffffff1673ffffffffffffffffffffffffffffffffffffffff1663a9059cbb600460009054906101000a900473ffffffffffffffffffffffffffffffffffffffff16606460008054906101000a900473ffffffffffffffffffffffffffffffffffffffff1673ffffffffffffffffffffffffffffffffffffffff166370a08231306040518263ffffffff1660e01b81526004016115449190611af6565b602060405180830381865afa158015611561573d6000803e3d6000fd5b505050506040513d601f19601f820116820180604052508101906115859190611f22565b600c54611592919061231a565b61159c919061238b565b6040518363ffffffff1660e01b81526004016115b9929190611fae565b6020604051808303816000875af11580156115d8573d6000803e3d6000fd5b505050506040513d601f19601f820116820180604052508101906115fc9190611e39565b5050565b600380600781111561161557611614611a55565b5b600860009054906101000a900460ff16600781111561163757611636611a55565b5b1461164157600080fd5b61164b600461120a565b611653611384565b61165b611670565b611663611727565b61166d600561120a565b50565b600260009054906101000a900473ffffffffffffffffffffffffffffffffffffffff1673ffffffffffffffffffffffffffffffffffffffff166323b872dd30600360009054906101000a900473ffffffffffffffffffffffffffffffffffffffff166005546040518463ffffffff1660e01b81526004016116f3939291906123e5565b600060405180830381600087803b15801561170d57600080fd5b505af1158015611721573d6000803e3d6000fd5b50505050565b600160009054906101000a900473ffffffffffffffffffffffffffffffffffffffff1673ffffffffffffffffffffffffffffffffffffffff1663d0def521600460009054906101000a900473ffffffffffffffffffffffffffffffffffffffff16600b6040518363ffffffff1660e01b81526004016117a79291906124b1565b600060405180830381600087803b1580156117c157600080fd5b505af11580156117d5573d6000803e3d6000fd5b50505050565b600073ffffffffffffffffffffffffffffffffffffffff82169050919050565b6000611806826117db565b9050919050565b611816816117fb565b82525050565b6000602082019050611831600083018461180d565b92915050565b600060ff82169050919050565b61184d81611837565b82525050565b60006060820190506118686000830186611844565b6118756020830185611844565b6118826040830184611844565b949350505050565b6000604051905090565b600080fd5b600080fd5b60006118a9826117db565b9050919050565b6118b98161189e565b81146118c457600080fd5b50565b6000813590506118d6816118b0565b92915050565b6000819050919050565b6118ef816118dc565b81146118fa57600080fd5b50565b60008135905061190c816118e6565b92915050565b600080fd5b600080fd5b600080fd5b60008083601f84011261193757611936611912565b5b8235905067ffffffffffffffff81111561195457611953611917565b5b6020830191508360018202830111156119705761196f61191c565b5b9250929050565b60008060008060006080868803121561199357611992611894565b5b60006119a1888289016118c7565b95505060206119b2888289016118c7565b94505060406119c3888289016118fd565b935050606086013567ffffffffffffffff8111156119e4576119e3611899565b5b6119f088828901611921565b92509250509295509295909350565b60007fffffffff0000000000000000000000000000000000000000000000000000000082169050919050565b611a34816119ff565b82525050565b6000602082019050611a4f6000830184611a2b565b92915050565b7f4e487b7100000000000000000000000000000000000000000000000000000000600052602160045260246000fd5b60088110611a9557611a94611a55565b5b50565b6000819050611aa682611a84565b919050565b6000611ab682611a98565b9050919050565b611ac681611aab565b82525050565b6000602082019050611ae16000830184611abd565b92915050565b611af08161189e565b82525050565b6000602082019050611b0b6000830184611ae7565b92915050565b600081519050919050565b600082825260208201905092915050565b6000819050602082019050919050565b611b4681611837565b82525050565b6000611b588383611b3d565b60208301905092915050565b6000602082019050919050565b6000611b7c82611b11565b611b868185611b1c565b9350611b9183611b2d565b8060005b83811015611bc2578151611ba98882611b4c565b9750611bb483611b64565b925050600181019050611b95565b5085935050505092915050565b60006020820190508181036000830152611be98184611b71565b905092915050565b60008060408385031215611c0857611c07611894565b5b6000611c16858286016118c7565b9250506020611c27858286016118fd565b9150509250929050565b600080fd5b6000601f19601f8301169050919050565b7f4e487b7100000000000000000000000000000000000000000000000000000000600052604160045260246000fd5b611c7f82611c36565b810181811067ffffffffffffffff82111715611c9e57611c9d611c47565b5b80604052505050565b6000611cb161188a565b9050611cbd8282611c76565b919050565b600067ffffffffffffffff821115611cdd57611cdc611c47565b5b611ce682611c36565b9050602081019050919050565b82818337600083830152505050565b6000611d15611d1084611cc2565b611ca7565b905082815260208101848484011115611d3157611d30611c31565b5b611d3c848285611cf3565b509392505050565b600082601f830112611d5957611d58611912565b5b8135611d69848260208601611d02565b91505092915050565b600060208284031215611d8857611d87611894565b5b600082013567ffffffffffffffff811115611da657611da5611899565b5b611db284828501611d44565b91505092915050565b611dc4816118dc565b82525050565b6000606082019050611ddf6000830186611ae7565b611dec6020830185611ae7565b611df96040830184611dbb565b949350505050565b60008115159050919050565b611e1681611e01565b8114611e2157600080fd5b50565b600081519050611e3381611e0d565b92915050565b600060208284031215611e4f57611e4e611894565b5b6000611e5d84828501611e24565b91505092915050565b7f4e487b7100000000000000000000000000000000000000000000000000000000600052601160045260246000fd5b6000611ea0826118dc565b9150611eab836118dc565b9250828203905081811115611ec357611ec2611e66565b5b92915050565b6000611ed482611837565b915060ff8203611ee757611ee6611e66565b5b600182019050919050565b6000602082019050611f076000830184611844565b92915050565b600081519050611f1c816118e6565b92915050565b600060208284031215611f3857611f37611894565b5b6000611f4684828501611f0d565b91505092915050565b6000819050919050565b6000611f74611f6f611f6a846117db565b611f4f565b6117db565b9050919050565b6000611f8682611f59565b9050919050565b6000611f9882611f7b565b9050919050565b611fa881611f8d565b82525050565b6000604082019050611fc36000830185611f9f565b611fd06020830184611dbb565b9392505050565b600081519050919050565b7f4e487b7100000000000000000000000000000000000000000000000000000000600052602260045260246000fd5b6000600282049050600182168061202957607f821691505b60208210810361203c5761203b611fe2565b5b50919050565b60008190508160005260206000209050919050565b60006020601f8301049050919050565b600082821b905092915050565b6000600883026120a47fffffffffffffffffffffffffffffffffffffffffffffffffffffffffffffffff82612067565b6120ae8683612067565b95508019841693508086168417925050509392505050565b60006120e16120dc6120d7846118dc565b611f4f565b6118dc565b9050919050565b6000819050919050565b6120fb836120c6565b61210f612107826120e8565b848454612074565b825550505050565b600090565b612124612117565b61212f8184846120f2565b505050565b5b818110156121535761214860008261211c565b600181019050612135565b5050565b601f8211156121985761216981612042565b61217284612057565b81016020851015612181578190505b61219561218d85612057565b830182612134565b50505b505050565b600082821c905092915050565b60006121bb6000198460080261219d565b1980831691505092915050565b60006121d483836121aa565b9150826002028217905092915050565b6121ed82611fd7565b67ffffffffffffffff81111561220657612205611c47565b5b6122108254612011565b61221b828285612157565b600060209050601f83116001811461224e576000841561223c578287015190505b61224685826121c8565b8655506122ae565b601f19841661225c86612042565b60005b828110156122845784890151825560018201915060208501945060208101905061225f565b868310156122a1578489015161229d601f8916826121aa565b8355505b6001600288020188555050505b505050505050565b7f4e487b7100000000000000000000000000000000000000000000000000000000600052603260045260246000fd5b60006122f082611837565b91506122fb83611837565b9250828203905060ff81111561231457612313611e66565b5b92915050565b6000612325826118dc565b9150612330836118dc565b925082820261233e816118dc565b9150828204841483151761235557612354611e66565b5b5092915050565b7f4e487b7100000000000000000000000000000000000000000000000000000000600052601260045260246000fd5b6000612396826118dc565b91506123a1836118dc565b9250826123b1576123b061235c565b5b828204905092915050565b60006040820190506123d16000830185611844565b6123de6020830184611844565b9392505050565b60006060820190506123fa6000830186611ae7565b6124076020830185611f9f565b6124146040830184611dbb565b949350505050565b600082825260208201905092915050565b6000815461243a81612011565b612444818661241c565b9450600182166000811461245f5760018114612475576124a8565b60ff1983168652811515602002860193506124a8565b61247e85612042565b60005b838110156124a057815481890152600182019150602081019050612481565b808801955050505b50505092915050565b60006040820190506124c66000830185611f9f565b81810360208301526124d8818461242d565b9050939250505056fea2646970667358221220d468558643d8df1bdcd61d4c8d20a710b1b34511c4dad330fd4dae97c036053764736f6c63430008110033",
  "immutableReferences": {},
  "source": "/**\n * @file nftescrow.sol\n * @author Jackson Ng <jackson@jacksonng.org>\n * @date created 16th Sep 2021\n * @date last modified 18th Sep 2021\n */\n\n//SPDX-License-Identifier: MIT\n\n// https://github.com/jacksonng77/NFT-Escrow-Service/blob/main/nftescrow.sol\n// https://medium.com/coinmonks/nft-based-escrow-service-business-logic-3dfc5be85a03\n\npragma solidity ^0.8.2;\n\nimport \"@openzeppelin/contracts/token/ERC721/ERC721.sol\";\nimport \"@openzeppelin/contracts/token/ERC721/IERC721Receiver.sol\";\nimport \"@openzeppelin/contracts/token/ERC20/IERC20.sol\";\n\ninterface RevereGigCompletionNFTInterface {\n    function mint(address _to, string memory tokenURI_) external;\n}\n\ncontract NFTEscrow is IERC721Receiver {\n    enum ProjectState {\n        newEscrow,\n        nftDeposited,\n        receivedFundsByClient,\n        checkpointingStarted,\n        checkpointsDone,\n        done,\n        cancelledByClient,\n        cancelledByFreelancer\n    }\n    event Received(address, uint);\n\n    event ClientCheckpointChanged(uint8);\n    event FreelancerCheckpointChanged(uint8);\n\n    event FundsDisbursed(uint8 _from, uint8 _to);\n\n    event ProjectStateChanged(ProjectState _state);\n\n    // TODO: why public?\n    // TODO: token address can change ,rn hardcoded\n\n    address public RTNAddress; // = 0xd9145CCE52D386f254917e481eB44e9943F39138;\n    address public RGCNFTAddress; // = 0xf8e81D47203A594245E36C48e151709F0C19fBe8;\n\n    address public RNFTAddress;\n    address payable public clientAddress;\n    address payable public freelancerAddress;\n\n    uint256 RNFTTokenID;\n\n    uint clientAmount;\n    uint freelancerStake;\n\n    ProjectState public projectState;\n\n    struct currentCheckpointsStruct {\n        uint8 client;\n        uint8 freelancer;\n        // smc denotes till which checkpoint have funds been disbursed\n        uint8 smc;\n    }\n\n    currentCheckpointsStruct currentCheckpoints;\n\n    // percentage of funds to be disbursed at each step.\n    // NOTE: You NEED to use cumulative percentages. And the first percentage is 0.\n    // Example: [0, 10, 25, 100]\n    uint8[] checkpoints;\n\n    string RGCNFTArtURI;\n\n    uint freelancerCompensationIfClientCancels;\n\n    // IERC20 public token; // Address of token contract\n    // address public transferOperator; // Address to manage the Transfers\n\n    constructor(\n        uint8[] memory _checkpoints,\n        address _freelancer,\n        uint _clientAmount,\n        uint _freelancerStake,\n        address _RGCNFTAddress,\n        address _RTNAddress,\n        uint _freelancerCompensationIfClientCancels\n    ) payable {\n        require(_checkpoints[_checkpoints.length - 1] == 100);\n        require(_checkpoints[0] == 0);\n        clientAddress = payable(msg.sender);\n        freelancerAddress = payable(_freelancer);\n        checkpoints = _checkpoints;\n        clientAmount = _clientAmount;\n        freelancerStake = _freelancerStake;\n        RGCNFTAddress = _RGCNFTAddress;\n        RTNAddress = _RTNAddress;\n        freelancerCompensationIfClientCancels = _freelancerCompensationIfClientCancels;\n        setProjectState(ProjectState.newEscrow);\n\n        RGCNFTArtURI = \"\";\n    }\n\n    modifier condition(bool _condition) {\n        require(_condition);\n        _;\n    }\n\n    modifier onlyClient() {\n        require(msg.sender == clientAddress);\n        _;\n    }\n\n    modifier onlyFreelancer() {\n        require(msg.sender == freelancerAddress);\n        _;\n    }\n\n    modifier inProjectState(ProjectState _state) {\n        require(projectState == _state);\n        _;\n    }\n\n    function setRGCNFTURI(string memory _RGCNFTArtURI) public {\n        RGCNFTArtURI = _RGCNFTArtURI;\n    }\n\n    function setProjectState(ProjectState _state) private {\n        projectState = _state;\n        emit ProjectStateChanged(projectState);\n    }\n\n    function getProjectState() public view returns (ProjectState) {\n        return projectState;\n    }\n\n    // Project Lifecycle\n    function depositRNFT(address _RNFTAddress, uint256 _RNFTTokenID)\n        public\n        inProjectState(ProjectState.newEscrow)\n        onlyClient\n    {\n        RNFTAddress = _RNFTAddress;\n        RNFTTokenID = _RNFTTokenID;\n        ERC721(RNFTAddress).safeTransferFrom(\n            msg.sender,\n            address(this),\n            RNFTTokenID\n        );\n        setProjectState(ProjectState.nftDeposited);\n    }\n\n    // The transfer should have been approved by the client.\n    function depositFundsAsClient()\n        public\n        inProjectState(ProjectState.nftDeposited)\n        onlyClient\n    {\n        IERC20(RTNAddress).transferFrom(\n            msg.sender,\n            address(this),\n            clientAmount\n        );\n        setProjectState(ProjectState.receivedFundsByClient);\n    }\n\n    /// @dev The transfer should be approved by freelancer\n    function depositFundsAsFreelancer()\n        public\n        inProjectState(ProjectState.receivedFundsByClient)\n        onlyFreelancer\n    {\n        IERC20(RTNAddress).transferFrom(\n            msg.sender,\n            address(this),\n            freelancerStake\n        );\n        setProjectState(ProjectState.checkpointingStarted);\n    }\n\n    function increaseFreelancerCheckpoint()\n        external\n        inProjectState(ProjectState.checkpointingStarted)\n        onlyFreelancer\n    {\n        require(currentCheckpoints.freelancer < (checkpoints.length - 1));\n        currentCheckpoints.freelancer++;\n        emit FreelancerCheckpointChanged(currentCheckpoints.freelancer);\n    }\n\n    function increaseClientCheckpoint()\n        external\n        inProjectState(ProjectState.checkpointingStarted)\n        onlyClient\n    {\n        require(currentCheckpoints.client < (checkpoints.length - 1));\n        currentCheckpoints.client++;\n        emit ClientCheckpointChanged(currentCheckpoints.client);\n    }\n\n    function disburseFunds() external onlyFreelancer {\n        _disburseFunds();\n    }\n\n    function _disburseFunds() private {\n        uint8 approvedCheckpoint = currentCheckpoints.client;\n        if (currentCheckpoints.freelancer < currentCheckpoints.client) {\n            approvedCheckpoint = currentCheckpoints.freelancer;\n        }\n        if (currentCheckpoints.smc < approvedCheckpoint) {\n            uint8 percentageToBeTransferred = checkpoints[approvedCheckpoint] -\n                checkpoints[currentCheckpoints.smc];\n            // Transfer percentageToBeTransferred*totalAmount to freelancer\n            uint amountToBeTransferred = (percentageToBeTransferred *\n                clientAmount) / 100;\n            // return (amountToBeTransferred);\n            IERC20(RTNAddress).transfer(\n                freelancerAddress,\n                amountToBeTransferred\n            );\n            emit FundsDisbursed(currentCheckpoints.smc, approvedCheckpoint);\n            currentCheckpoints.smc = approvedCheckpoint;\n            if (approvedCheckpoint == checkpoints.length - 1) {\n                checkpointingDone();\n            }\n        }\n    }\n\n    function checkpointingDone()\n        private\n        inProjectState(ProjectState.checkpointingStarted)\n    {\n        setProjectState(ProjectState.checkpointsDone);\n        releaseStakedFundsToFreelancer();\n        releaseGigNFTToClient();\n        mintGigCompletionNFTForFreelancer();\n        setProjectState(ProjectState.done);\n    }\n\n    function releaseStakedFundsToFreelancer() private {\n        IERC20(RTNAddress).transfer(freelancerAddress, freelancerStake);\n    }\n\n    function releaseStakedFundsToClient()\n        private\n        inProjectState(ProjectState.cancelledByFreelancer)\n    {\n        IERC20(RTNAddress).transfer(clientAddress, freelancerStake);\n    }\n\n    function releaseGigNFTToClient() private {\n        ERC721(RNFTAddress).transferFrom(\n            address(this),\n            clientAddress,\n            RNFTTokenID\n        );\n    }\n\n    function mintGigCompletionNFTForFreelancer() private {\n        RevereGigCompletionNFTInterface(RGCNFTAddress).mint(\n            freelancerAddress,\n            RGCNFTArtURI\n        );\n    }\n\n    function getCheckpointStatus()\n        external\n        view\n        returns (\n            uint8 client,\n            uint8 freelancer,\n            uint8 smc\n        )\n    {\n        return (\n            currentCheckpoints.client,\n            currentCheckpoints.freelancer,\n            currentCheckpoints.smc\n        );\n    }\n\n    function getCheckpoints() external view returns (uint8[] memory) {\n        return checkpoints;\n    }\n\n    function clientCancel() external onlyClient {\n        _disburseFunds();\n        setProjectState(ProjectState.cancelledByClient);\n        releaseStakedFundsToFreelancer();\n        // No NFTs will be released as the client cancelled the project.\n        releaseCancellationCompensation();\n        // transfer left over funds to client\n        IERC20(RTNAddress).transfer(\n            clientAddress,\n            IERC20(RTNAddress).balanceOf(address(this))\n        );\n    }\n\n    function freelancerCancel() external onlyFreelancer {\n        _disburseFunds();\n        setProjectState(ProjectState.cancelledByFreelancer);\n        releaseStakedFundsToClient();\n        // transfer left over funds to freelancer\n        IERC20(RTNAddress).transfer(\n            freelancerAddress,\n            IERC20(RTNAddress).balanceOf(address(this))\n        );\n    }\n\n    function releaseCancellationCompensation()\n        private\n        inProjectState(ProjectState.cancelledByClient)\n    {\n        IERC20(RTNAddress).transfer(\n            freelancerAddress,\n            (freelancerCompensationIfClientCancels *\n                IERC20(RTNAddress).balanceOf(address(this))/100)\n        );\n    }\n\n    // copied code from here\n\n    function onERC721Received(\n        address operator,\n        address from,\n        uint256 tokenId,\n        bytes calldata data\n    ) public pure override returns (bytes4) {\n        return this.onERC721Received.selector;\n    }\n}\n",
  "sourcePath": "/home/fitz/Workspace/projects/RevereLabs/smartContract/contracts/NFTEscrow.sol",
  "compiler": {
    "name": "solc",
    "version": "0.8.17+commit.8df45f5f.Emscripten.clang"
  },
  "schemaVersion": "3.4.10",
  "updatedAt": "2022-09-24T17:52:12.654Z",
  "devdoc": {
    "kind": "dev",
    "methods": {
      "depositFundsAsFreelancer()": {
        "details": "The transfer should be approved by freelancer"
      },
      "onERC721Received(address,address,uint256,bytes)": {
        "details": "Whenever an {IERC721} `tokenId` token is transferred to this contract via {IERC721-safeTransferFrom} by `operator` from `from`, this function is called. It must return its Solidity selector to confirm the token transfer. If any other value is returned or the interface is not implemented by the recipient, the transfer will be reverted. The selector can be obtained in Solidity with `IERC721Receiver.onERC721Received.selector`."
      }
    },
    "version": 1
  },
  "userdoc": {
    "kind": "user",
    "methods": {},
    "version": 1
  }
}